{
  "_format": "hh-sol-artifact-1",
  "contractName": "CampaignFactory",
  "sourceName": "contracts/CampaignFactory.sol",
  "abi": [
    {
      "anonymous": false,
      "inputs": [
        {
          "indexed": true,
          "internalType": "address",
          "name": "campaign",
          "type": "address"
        },
        {
          "indexed": true,
          "internalType": "address",
          "name": "creator",
          "type": "address"
        }
      ],
      "name": "CampaignCreated",
      "type": "event"
    },
    {
      "inputs": [
        {
          "internalType": "uint256",
          "name": "minimumContribution",
          "type": "uint256"
        },
        {
          "internalType": "uint256",
          "name": "goalAmount",
          "type": "uint256"
        }
      ],
      "name": "createCampaign",
      "outputs": [],
      "stateMutability": "nonpayable",
      "type": "function"
    },
    {
      "inputs": [
        {
          "internalType": "uint256",
          "name": "",
          "type": "uint256"
        }
      ],
      "name": "deployedCampaigns",
      "outputs": [
        {
          "internalType": "contract Campaign",
          "name": "",
          "type": "address"
        }
      ],
      "stateMutability": "view",
      "type": "function"
    },
    {
      "inputs": [],
      "name": "getDeployedCampaigns",
      "outputs": [
        {
          "internalType": "contract Campaign[]",
          "name": "",
          "type": "address[]"
        }
      ],
      "stateMutability": "view",
      "type": "function"
    }
  ],
  "bytecode": "0x6080604052348015600f57600080fd5b506120028061001f6000396000f3fe608060405234801561001057600080fd5b50600436106100415760003560e01c80632250226814610046578063339d50a5146100625780634acb9d4f14610092575b600080fd5b610060600480360381019061005b91906102c3565b6100b0565b005b61007c60048036038101906100779190610303565b6101ae565b60405161008991906103af565b60405180910390f35b61009a6101ed565b6040516100a79190610488565b60405180910390f35b60008233836040516100c19061027b565b6100cd939291906104da565b604051809103906000f0801580156100e9573d6000803e3d6000fd5b5090506000819080600181540180825580915050600190039060005260206000200160009091909190916101000a81548173ffffffffffffffffffffffffffffffffffffffff021916908373ffffffffffffffffffffffffffffffffffffffff1602179055503373ffffffffffffffffffffffffffffffffffffffff168173ffffffffffffffffffffffffffffffffffffffff167f6056366dba45431fd6a8854ad9f2594942b02c4f2c3f6fbc329b3079b027b8b460405160405180910390a3505050565b600081815481106101be57600080fd5b906000526020600020016000915054906101000a900473ffffffffffffffffffffffffffffffffffffffff1681565b6060600080548060200260200160405190810160405280929190818152602001828054801561027157602002820191906000526020600020905b8160009054906101000a900473ffffffffffffffffffffffffffffffffffffffff1673ffffffffffffffffffffffffffffffffffffffff1681526020019060010190808311610227575b5050505050905090565b611abb8061051283390190565b600080fd5b6000819050919050565b6102a08161028d565b81146102ab57600080fd5b50565b6000813590506102bd81610297565b92915050565b600080604083850312156102da576102d9610288565b5b60006102e8858286016102ae565b92505060206102f9858286016102ae565b9150509250929050565b60006020828403121561031957610318610288565b5b6000610327848285016102ae565b91505092915050565b600073ffffffffffffffffffffffffffffffffffffffff82169050919050565b6000819050919050565b600061037561037061036b84610330565b610350565b610330565b9050919050565b60006103878261035a565b9050919050565b60006103998261037c565b9050919050565b6103a98161038e565b82525050565b60006020820190506103c460008301846103a0565b92915050565b600081519050919050565b600082825260208201905092915050565b6000819050602082019050919050565b6103ff8161038e565b82525050565b600061041183836103f6565b60208301905092915050565b6000602082019050919050565b6000610435826103ca565b61043f81856103d5565b935061044a836103e6565b8060005b8381101561047b5781516104628882610405565b975061046d8361041d565b92505060018101905061044e565b5085935050505092915050565b600060208201905081810360008301526104a2818461042a565b905092915050565b6104b38161028d565b82525050565b60006104c482610330565b9050919050565b6104d4816104b9565b82525050565b60006060820190506104ef60008301866104aa565b6104fc60208301856104cb565b61050960408301846104aa565b94935050505056fe608060405234801561001057600080fd5b50604051611abb380380611abb833981810160405281019061003291906101a7565b60008311610075576040517f08c379a000000000000000000000000000000000000000000000000000000000815260040161006c9061027d565b60405180910390fd5b600081116100b8576040517f08c379a00000000000000000000000000000000000000000000000000000000081526004016100af906102e9565b60405180910390fd5b816000806101000a81548173ffffffffffffffffffffffffffffffffffffffff021916908373ffffffffffffffffffffffffffffffffffffffff1602179055508260018190555080600281905550505050610309565b600080fd5b6000819050919050565b61012681610113565b811461013157600080fd5b50565b6000815190506101438161011d565b92915050565b600073ffffffffffffffffffffffffffffffffffffffff82169050919050565b600061017482610149565b9050919050565b61018481610169565b811461018f57600080fd5b50565b6000815190506101a18161017b565b92915050565b6000806000606084860312156101c0576101bf61010e565b5b60006101ce86828701610134565b93505060206101df86828701610192565b92505060406101f086828701610134565b9150509250925092565b600082825260208201905092915050565b7f4d696e696d756d20636f6e747269627574696f6e206d7573742062652067726560008201527f61746572207468616e2030000000000000000000000000000000000000000000602082015250565b6000610267602b836101fa565b91506102728261020b565b604082019050919050565b600060208201905081810360008301526102968161025a565b9050919050565b7f476f616c206d7573742062652067726561746572207468616e20300000000000600082015250565b60006102d3601b836101fa565b91506102de8261029d565b602082019050919050565b60006020820190508181036000830152610302816102c6565b9050919050565b6117a3806103186000396000f3fe6080604052600436106100c25760003560e01c8063481c6a751161007f5780638a9cfd55116100595780638a9cfd5514610276578063937e09b11461029f578063d7bb99ba146102ca578063d7d1bbdb146102d4576100c2565b8063481c6a75146101df57806381d12c581461020a57806382fde0931461024b576100c2565b8063023f4147146100c757806303441006146100f25780630a1443911461011b5780633410452a1461015857806340193883146101835780634051ddac146101ae575b600080fd5b3480156100d357600080fd5b506100dc6102fd565b6040516100e99190610b38565b60405180910390f35b3480156100fe57600080fd5b5061011960048036038101906101149190610b93565b610303565b005b34801561012757600080fd5b50610142600480360381019061013d9190610c1e565b610553565b60405161014f9190610c66565b60405180910390f35b34801561016457600080fd5b5061016d610573565b60405161017a9190610b38565b60405180910390f35b34801561018f57600080fd5b50610198610580565b6040516101a59190610b38565b60405180910390f35b3480156101ba57600080fd5b506101c3610586565b6040516101d69796959493929190610c90565b60405180910390f35b3480156101eb57600080fd5b506101f46105dc565b6040516102019190610cff565b60405180910390f35b34801561021657600080fd5b50610231600480360381019061022c9190610b93565b610600565b604051610242959493929190610dcb565b60405180910390f35b34801561025757600080fd5b506102606106fb565b60405161026d9190610b38565b60405180910390f35b34801561028257600080fd5b5061029d60048036038101906102989190610f86565b610701565b005b3480156102ab57600080fd5b506102b461083e565b6040516102c19190610b38565b60405180910390f35b6102d2610844565b005b3480156102e057600080fd5b506102fb60048036038101906102f69190610b93565b610966565b005b60035481565b60008054906101000a900473ffffffffffffffffffffffffffffffffffffffff1673ffffffffffffffffffffffffffffffffffffffff163373ffffffffffffffffffffffffffffffffffffffff1614610391576040517f08c379a000000000000000000000000000000000000000000000000000000000815260040161038890611041565b60405180910390fd5b6000600582815481106103a7576103a6611061565b5b906000526020600020906005020190508060020160149054906101000a900460ff1615610409576040517f08c379a0000000000000000000000000000000000000000000000000000000008152600401610400906110dc565b60405180910390fd5b6002600654610418919061115a565b81600301541161045d576040517f08c379a0000000000000000000000000000000000000000000000000000000008152600401610454906111d7565b60405180910390fd5b60008160020160009054906101000a900473ffffffffffffffffffffffffffffffffffffffff1673ffffffffffffffffffffffffffffffffffffffff1682600101546040516104ab90611228565b60006040518083038185875af1925050503d80600081146104e8576040519150601f19603f3d011682016040523d82523d6000602084013e6104ed565b606091505b5050905080610531576040517f08c379a000000000000000000000000000000000000000000000000000000000815260040161052890611289565b60405180910390fd5b60018260020160146101000a81548160ff021916908315150217905550505050565b60046020528060005260406000206000915054906101000a900460ff1681565b6000600580549050905090565b60025481565b60008060008060008060006001544760058054905060065460008054906101000a900473ffffffffffffffffffffffffffffffffffffffff16600254600354965096509650965096509650965090919293949596565b60008054906101000a900473ffffffffffffffffffffffffffffffffffffffff1681565b6005818154811061061057600080fd5b9060005260206000209060050201600091509050806000018054610633906112d8565b80601f016020809104026020016040519081016040528092919081815260200182805461065f906112d8565b80156106ac5780601f10610681576101008083540402835291602001916106ac565b820191906000526020600020905b81548152906001019060200180831161068f57829003601f168201915b5050505050908060010154908060020160009054906101000a900473ffffffffffffffffffffffffffffffffffffffff16908060020160149054906101000a900460ff16908060030154905085565b60065481565b60008054906101000a900473ffffffffffffffffffffffffffffffffffffffff1673ffffffffffffffffffffffffffffffffffffffff163373ffffffffffffffffffffffffffffffffffffffff161461078f576040517f08c379a000000000000000000000000000000000000000000000000000000000815260040161078690611041565b60405180910390fd5b600060056001816001815401808255809150500390600052602060002090600502019050838160000190816107c491906114b5565b50828160010181905550818160020160006101000a81548173ffffffffffffffffffffffffffffffffffffffff021916908373ffffffffffffffffffffffffffffffffffffffff16021790555060008160020160146101000a81548160ff0219169083151502179055506000816003018190555050505050565b60015481565b600154341015610889576040517f08c379a0000000000000000000000000000000000000000000000000000000008152600401610880906115d3565b60405180910390fd5b346003600082825461089b91906115f3565b92505081905550600460003373ffffffffffffffffffffffffffffffffffffffff1673ffffffffffffffffffffffffffffffffffffffff16815260200190815260200160002060009054906101000a900460ff16610964576006600081548092919061090690611627565b91905055506001600460003373ffffffffffffffffffffffffffffffffffffffff1673ffffffffffffffffffffffffffffffffffffffff16815260200190815260200160002060006101000a81548160ff0219169083151502179055505b565b60006005828154811061097c5761097b611061565b5b90600052602060002090600502019050600460003373ffffffffffffffffffffffffffffffffffffffff1673ffffffffffffffffffffffffffffffffffffffff16815260200190815260200160002060009054906101000a900460ff16610a18576040517f08c379a0000000000000000000000000000000000000000000000000000000008152600401610a0f906116bb565b60405180910390fd5b8060040160003373ffffffffffffffffffffffffffffffffffffffff1673ffffffffffffffffffffffffffffffffffffffff16815260200190815260200160002060009054906101000a900460ff1615610aa7576040517f08c379a0000000000000000000000000000000000000000000000000000000008152600401610a9e9061174d565b60405180910390fd5b60018160040160003373ffffffffffffffffffffffffffffffffffffffff1673ffffffffffffffffffffffffffffffffffffffff16815260200190815260200160002060006101000a81548160ff021916908315150217905550806003016000815480929190610b1690611627565b91905055505050565b6000819050919050565b610b3281610b1f565b82525050565b6000602082019050610b4d6000830184610b29565b92915050565b6000604051905090565b600080fd5b600080fd5b610b7081610b1f565b8114610b7b57600080fd5b50565b600081359050610b8d81610b67565b92915050565b600060208284031215610ba957610ba8610b5d565b5b6000610bb784828501610b7e565b91505092915050565b600073ffffffffffffffffffffffffffffffffffffffff82169050919050565b6000610beb82610bc0565b9050919050565b610bfb81610be0565b8114610c0657600080fd5b50565b600081359050610c1881610bf2565b92915050565b600060208284031215610c3457610c33610b5d565b5b6000610c4284828501610c09565b91505092915050565b60008115159050919050565b610c6081610c4b565b82525050565b6000602082019050610c7b6000830184610c57565b92915050565b610c8a81610be0565b82525050565b600060e082019050610ca5600083018a610b29565b610cb26020830189610b29565b610cbf6040830188610b29565b610ccc6060830187610b29565b610cd96080830186610c81565b610ce660a0830185610b29565b610cf360c0830184610b29565b98975050505050505050565b6000602082019050610d146000830184610c81565b92915050565b600081519050919050565b600082825260208201905092915050565b60005b83811015610d54578082015181840152602081019050610d39565b60008484015250505050565b6000601f19601f8301169050919050565b6000610d7c82610d1a565b610d868185610d25565b9350610d96818560208601610d36565b610d9f81610d60565b840191505092915050565b6000610db582610bc0565b9050919050565b610dc581610daa565b82525050565b600060a0820190508181036000830152610de58188610d71565b9050610df46020830187610b29565b610e016040830186610dbc565b610e0e6060830185610c57565b610e1b6080830184610b29565b9695505050505050565b600080fd5b600080fd5b7f4e487b7100000000000000000000000000000000000000000000000000000000600052604160045260246000fd5b610e6782610d60565b810181811067ffffffffffffffff82111715610e8657610e85610e2f565b5b80604052505050565b6000610e99610b53565b9050610ea58282610e5e565b919050565b600067ffffffffffffffff821115610ec557610ec4610e2f565b5b610ece82610d60565b9050602081019050919050565b82818337600083830152505050565b6000610efd610ef884610eaa565b610e8f565b905082815260208101848484011115610f1957610f18610e2a565b5b610f24848285610edb565b509392505050565b600082601f830112610f4157610f40610e25565b5b8135610f51848260208601610eea565b91505092915050565b610f6381610daa565b8114610f6e57600080fd5b50565b600081359050610f8081610f5a565b92915050565b600080600060608486031215610f9f57610f9e610b5d565b5b600084013567ffffffffffffffff811115610fbd57610fbc610b62565b5b610fc986828701610f2c565b9350506020610fda86828701610b7e565b9250506040610feb86828701610f71565b9150509250925092565b7f596f7520617265206e6f7420746865206d616e61676572000000000000000000600082015250565b600061102b601783610d25565b915061103682610ff5565b602082019050919050565b6000602082019050818103600083015261105a8161101e565b9050919050565b7f4e487b7100000000000000000000000000000000000000000000000000000000600052603260045260246000fd5b7f5265717565737420616c726561647920636f6d706c6574656400000000000000600082015250565b60006110c6601983610d25565b91506110d182611090565b602082019050919050565b600060208201905081810360008301526110f5816110b9565b9050919050565b7f4e487b7100000000000000000000000000000000000000000000000000000000600052601260045260246000fd5b7f4e487b7100000000000000000000000000000000000000000000000000000000600052601160045260246000fd5b600061116582610b1f565b915061117083610b1f565b9250826111805761117f6110fc565b5b828204905092915050565b7f4e6f7420656e6f75676820617070726f76616c73000000000000000000000000600082015250565b60006111c1601483610d25565b91506111cc8261118b565b602082019050919050565b600060208201905081810360008301526111f0816111b4565b9050919050565b600081905092915050565b50565b60006112126000836111f7565b915061121d82611202565b600082019050919050565b600061123382611205565b9150819050919050565b7f5472616e73666572206661696c65640000000000000000000000000000000000600082015250565b6000611273600f83610d25565b915061127e8261123d565b602082019050919050565b600060208201905081810360008301526112a281611266565b9050919050565b7f4e487b7100000000000000000000000000000000000000000000000000000000600052602260045260246000fd5b600060028204905060018216806112f057607f821691505b602082108103611303576113026112a9565b5b50919050565b60008190508160005260206000209050919050565b60006020601f8301049050919050565b600082821b905092915050565b60006008830261136b7fffffffffffffffffffffffffffffffffffffffffffffffffffffffffffffffff8261132e565b611375868361132e565b95508019841693508086168417925050509392505050565b6000819050919050565b60006113b26113ad6113a884610b1f565b61138d565b610b1f565b9050919050565b6000819050919050565b6113cc83611397565b6113e06113d8826113b9565b84845461133b565b825550505050565b600090565b6113f56113e8565b6114008184846113c3565b505050565b5b81811015611424576114196000826113ed565b600181019050611406565b5050565b601f8211156114695761143a81611309565b6114438461131e565b81016020851015611452578190505b61146661145e8561131e565b830182611405565b50505b505050565b600082821c905092915050565b600061148c6000198460080261146e565b1980831691505092915050565b60006114a5838361147b565b9150826002028217905092915050565b6114be82610d1a565b67ffffffffffffffff8111156114d7576114d6610e2f565b5b6114e182546112d8565b6114ec828285611428565b600060209050601f83116001811461151f576000841561150d578287015190505b6115178582611499565b86555061157f565b601f19841661152d86611309565b60005b8281101561155557848901518255600182019150602085019450602081019050611530565b86831015611572578489015161156e601f89168261147b565b8355505b6001600288020188555050505b505050505050565b7f4d696e696d756d20636f6e747269627574696f6e206e6f74206d657400000000600082015250565b60006115bd601c83610d25565b91506115c882611587565b602082019050919050565b600060208201905081810360008301526115ec816115b0565b9050919050565b60006115fe82610b1f565b915061160983610b1f565b92508282019050808211156116215761162061112b565b5b92915050565b600061163282610b1f565b91507fffffffffffffffffffffffffffffffffffffffffffffffffffffffffffffffff82036116645761166361112b565b5b600182019050919050565b7f596f7520617265206e6f7420616e20617070726f766572000000000000000000600082015250565b60006116a5601783610d25565b91506116b08261166f565b602082019050919050565b600060208201905081810360008301526116d481611698565b9050919050565b7f596f75206861766520616c726561647920617070726f7665642074686973207260008201527f6571756573740000000000000000000000000000000000000000000000000000602082015250565b6000611737602683610d25565b9150611742826116db565b604082019050919050565b600060208201905081810360008301526117668161172a565b905091905056fea26469706673582212203b8e14bf51ac4d4554e12bd176d73e7be674e6355433c6b28e09b5bf2c5a681b64736f6c634300081f0033a264697066735822122076100aae06224a1d7fb973817c39762725817a976213aee10046c15d99daf10164736f6c634300081f0033",
  "linkReferences": {},
  "deployedLinkReferences": {}
}