{
  "_format": "hh-sol-artifact-1",
  "contractName": "CampaignFactory",
  "sourceName": "contracts/CampaignFactory.sol",
  "abi": [
    {
      "anonymous": false,
      "inputs": [
        {
          "indexed": true,
          "internalType": "address",
          "name": "campaign",
          "type": "address"
        },
        {
          "indexed": true,
          "internalType": "address",
          "name": "creator",
          "type": "address"
        }
      ],
      "name": "CampaignCreated",
      "type": "event"
    },
    {
      "inputs": [
        {
          "internalType": "uint256",
          "name": "minimumContribution",
          "type": "uint256"
        },
        {
          "internalType": "uint256",
          "name": "goalAmount",
          "type": "uint256"
        }
      ],
      "name": "createCampaign",
      "outputs": [],
      "stateMutability": "nonpayable",
      "type": "function"
    },
    {
      "inputs": [
        {
          "internalType": "uint256",
          "name": "",
          "type": "uint256"
        }
      ],
      "name": "deployedCampaigns",
      "outputs": [
        {
          "internalType": "contract Campaign",
          "name": "",
          "type": "address"
        }
      ],
      "stateMutability": "view",
      "type": "function"
    },
    {
      "inputs": [],
      "name": "getDeployedCampaigns",
      "outputs": [
        {
          "internalType": "contract Campaign[]",
          "name": "",
          "type": "address[]"
        }
      ],
      "stateMutability": "view",
      "type": "function"
    }
  ],
  "bytecode": "0x6080604052348015600f57600080fd5b50611eea8061001f6000396000f3fe608060405234801561001057600080fd5b50600436106100415760003560e01c80632250226814610046578063339d50a5146100625780634acb9d4f14610092575b600080fd5b610060600480360381019061005b91906102c3565b6100b0565b005b61007c60048036038101906100779190610303565b6101ae565b60405161008991906103af565b60405180910390f35b61009a6101ed565b6040516100a79190610488565b60405180910390f35b60008233836040516100c19061027b565b6100cd939291906104da565b604051809103906000f0801580156100e9573d6000803e3d6000fd5b5090506000819080600181540180825580915050600190039060005260206000200160009091909190916101000a81548173ffffffffffffffffffffffffffffffffffffffff021916908373ffffffffffffffffffffffffffffffffffffffff1602179055503373ffffffffffffffffffffffffffffffffffffffff168173ffffffffffffffffffffffffffffffffffffffff167f6056366dba45431fd6a8854ad9f2594942b02c4f2c3f6fbc329b3079b027b8b460405160405180910390a3505050565b600081815481106101be57600080fd5b906000526020600020016000915054906101000a900473ffffffffffffffffffffffffffffffffffffffff1681565b6060600080548060200260200160405190810160405280929190818152602001828054801561027157602002820191906000526020600020905b8160009054906101000a900473ffffffffffffffffffffffffffffffffffffffff1673ffffffffffffffffffffffffffffffffffffffff1681526020019060010190808311610227575b5050505050905090565b6119a38061051283390190565b600080fd5b6000819050919050565b6102a08161028d565b81146102ab57600080fd5b50565b6000813590506102bd81610297565b92915050565b600080604083850312156102da576102d9610288565b5b60006102e8858286016102ae565b92505060206102f9858286016102ae565b9150509250929050565b60006020828403121561031957610318610288565b5b6000610327848285016102ae565b91505092915050565b600073ffffffffffffffffffffffffffffffffffffffff82169050919050565b6000819050919050565b600061037561037061036b84610330565b610350565b610330565b9050919050565b60006103878261035a565b9050919050565b60006103998261037c565b9050919050565b6103a98161038e565b82525050565b60006020820190506103c460008301846103a0565b92915050565b600081519050919050565b600082825260208201905092915050565b6000819050602082019050919050565b6103ff8161038e565b82525050565b600061041183836103f6565b60208301905092915050565b6000602082019050919050565b6000610435826103ca565b61043f81856103d5565b935061044a836103e6565b8060005b8381101561047b5781516104628882610405565b975061046d8361041d565b92505060018101905061044e565b5085935050505092915050565b600060208201905081810360008301526104a2818461042a565b905092915050565b6104b38161028d565b82525050565b60006104c482610330565b9050919050565b6104d4816104b9565b82525050565b60006060820190506104ef60008301866104aa565b6104fc60208301856104cb565b61050960408301846104aa565b94935050505056fe608060405234801561001057600080fd5b506040516119a33803806119a3833981810160405281019061003291906101a7565b60008311610075576040517f08c379a000000000000000000000000000000000000000000000000000000000815260040161006c9061027d565b60405180910390fd5b600081116100b8576040517f08c379a00000000000000000000000000000000000000000000000000000000081526004016100af906102e9565b60405180910390fd5b816000806101000a81548173ffffffffffffffffffffffffffffffffffffffff021916908373ffffffffffffffffffffffffffffffffffffffff1602179055508260018190555080600281905550505050610309565b600080fd5b6000819050919050565b61012681610113565b811461013157600080fd5b50565b6000815190506101438161011d565b92915050565b600073ffffffffffffffffffffffffffffffffffffffff82169050919050565b600061017482610149565b9050919050565b61018481610169565b811461018f57600080fd5b50565b6000815190506101a18161017b565b92915050565b6000806000606084860312156101c0576101bf61010e565b5b60006101ce86828701610134565b93505060206101df86828701610192565b92505060406101f086828701610134565b9150509250925092565b600082825260208201905092915050565b7f4d696e696d756d20636f6e747269627574696f6e206d7573742062652067726560008201527f61746572207468616e2030000000000000000000000000000000000000000000602082015250565b6000610267602b836101fa565b91506102728261020b565b604082019050919050565b600060208201905081810360008301526102968161025a565b9050919050565b7f476f616c206d7573742062652067726561746572207468616e20300000000000600082015250565b60006102d3601b836101fa565b91506102de8261029d565b602082019050919050565b60006020820190508181036000830152610302816102c6565b9050919050565b61168b806103186000396000f3fe6080604052600436106100a75760003560e01c806382fde0931161006457806382fde093146101d85780638a9cfd5514610203578063937e09b11461022c578063ba31181414610257578063d7bb99ba14610282578063d7d1bbdb1461028c576100a7565b806303441006146100ac5780630a144391146100d557806340193883146101125780634051ddac1461013d578063481c6a751461016c57806381d12c5814610197575b600080fd5b3480156100b857600080fd5b506100d360048036038101906100ce9190610aa1565b6102b5565b005b3480156100e157600080fd5b506100fc60048036038101906100f79190610b2c565b610505565b6040516101099190610b74565b60405180910390f35b34801561011e57600080fd5b50610127610525565b6040516101349190610b9e565b60405180910390f35b34801561014957600080fd5b5061015261052b565b604051610163959493929190610bc8565b60405180910390f35b34801561017857600080fd5b50610181610572565b60405161018e9190610c1b565b60405180910390f35b3480156101a357600080fd5b506101be60048036038101906101b99190610aa1565b610596565b6040516101cf959493929190610ce7565b60405180910390f35b3480156101e457600080fd5b506101ed610691565b6040516101fa9190610b9e565b60405180910390f35b34801561020f57600080fd5b5061022a60048036038101906102259190610ea2565b610697565b005b34801561023857600080fd5b506102416107d4565b60405161024e9190610b9e565b60405180910390f35b34801561026357600080fd5b5061026c6107da565b6040516102799190610b9e565b60405180910390f35b61028a6107e7565b005b34801561029857600080fd5b506102b360048036038101906102ae9190610aa1565b61089e565b005b60008054906101000a900473ffffffffffffffffffffffffffffffffffffffff1673ffffffffffffffffffffffffffffffffffffffff163373ffffffffffffffffffffffffffffffffffffffff1614610343576040517f08c379a000000000000000000000000000000000000000000000000000000000815260040161033a90610f5d565b60405180910390fd5b60006004828154811061035957610358610f7d565b5b906000526020600020906005020190508060020160149054906101000a900460ff16156103bb576040517f08c379a00000000000000000000000000000000000000000000000000000000081526004016103b290610ff8565b60405180910390fd5b60026005546103ca9190611076565b81600301541161040f576040517f08c379a0000000000000000000000000000000000000000000000000000000008152600401610406906110f3565b60405180910390fd5b60008160020160009054906101000a900473ffffffffffffffffffffffffffffffffffffffff1673ffffffffffffffffffffffffffffffffffffffff16826001015460405161045d90611144565b60006040518083038185875af1925050503d806000811461049a576040519150601f19603f3d011682016040523d82523d6000602084013e61049f565b606091505b50509050806104e3576040517f08c379a00000000000000000000000000000000000000000000000000000000081526004016104da906111a5565b60405180910390fd5b60018260020160146101000a81548160ff021916908315150217905550505050565b60036020528060005260406000206000915054906101000a900460ff1681565b60025481565b60008060008060006001544760048054905060055460008054906101000a900473ffffffffffffffffffffffffffffffffffffffff16945094509450945094509091929394565b60008054906101000a900473ffffffffffffffffffffffffffffffffffffffff1681565b600481815481106105a657600080fd5b90600052602060002090600502016000915090508060000180546105c9906111f4565b80601f01602080910402602001604051908101604052809291908181526020018280546105f5906111f4565b80156106425780601f1061061757610100808354040283529160200191610642565b820191906000526020600020905b81548152906001019060200180831161062557829003601f168201915b5050505050908060010154908060020160009054906101000a900473ffffffffffffffffffffffffffffffffffffffff16908060020160149054906101000a900460ff16908060030154905085565b60055481565b60008054906101000a900473ffffffffffffffffffffffffffffffffffffffff1673ffffffffffffffffffffffffffffffffffffffff163373ffffffffffffffffffffffffffffffffffffffff1614610725576040517f08c379a000000000000000000000000000000000000000000000000000000000815260040161071c90610f5d565b60405180910390fd5b6000600460018160018154018082558091505003906000526020600020906005020190508381600001908161075a91906113d1565b50828160010181905550818160020160006101000a81548173ffffffffffffffffffffffffffffffffffffffff021916908373ffffffffffffffffffffffffffffffffffffffff16021790555060008160020160146101000a81548160ff0219169083151502179055506000816003018190555050505050565b60015481565b6000600480549050905090565b60015434101561082c576040517f08c379a0000000000000000000000000000000000000000000000000000000008152600401610823906114ef565b60405180910390fd5b6001600360003373ffffffffffffffffffffffffffffffffffffffff1673ffffffffffffffffffffffffffffffffffffffff16815260200190815260200160002060006101000a81548160ff021916908315150217905550600560008154809291906108979061150f565b9190505550565b6000600482815481106108b4576108b3610f7d565b5b90600052602060002090600502019050600360003373ffffffffffffffffffffffffffffffffffffffff1673ffffffffffffffffffffffffffffffffffffffff16815260200190815260200160002060009054906101000a900460ff16610950576040517f08c379a0000000000000000000000000000000000000000000000000000000008152600401610947906115a3565b60405180910390fd5b8060040160003373ffffffffffffffffffffffffffffffffffffffff1673ffffffffffffffffffffffffffffffffffffffff16815260200190815260200160002060009054906101000a900460ff16156109df576040517f08c379a00000000000000000000000000000000000000000000000000000000081526004016109d690611635565b60405180910390fd5b60018160040160003373ffffffffffffffffffffffffffffffffffffffff1673ffffffffffffffffffffffffffffffffffffffff16815260200190815260200160002060006101000a81548160ff021916908315150217905550806003016000815480929190610a4e9061150f565b91905055505050565b6000604051905090565b600080fd5b600080fd5b6000819050919050565b610a7e81610a6b565b8114610a8957600080fd5b50565b600081359050610a9b81610a75565b92915050565b600060208284031215610ab757610ab6610a61565b5b6000610ac584828501610a8c565b91505092915050565b600073ffffffffffffffffffffffffffffffffffffffff82169050919050565b6000610af982610ace565b9050919050565b610b0981610aee565b8114610b1457600080fd5b50565b600081359050610b2681610b00565b92915050565b600060208284031215610b4257610b41610a61565b5b6000610b5084828501610b17565b91505092915050565b60008115159050919050565b610b6e81610b59565b82525050565b6000602082019050610b896000830184610b65565b92915050565b610b9881610a6b565b82525050565b6000602082019050610bb36000830184610b8f565b92915050565b610bc281610aee565b82525050565b600060a082019050610bdd6000830188610b8f565b610bea6020830187610b8f565b610bf76040830186610b8f565b610c046060830185610b8f565b610c116080830184610bb9565b9695505050505050565b6000602082019050610c306000830184610bb9565b92915050565b600081519050919050565b600082825260208201905092915050565b60005b83811015610c70578082015181840152602081019050610c55565b60008484015250505050565b6000601f19601f8301169050919050565b6000610c9882610c36565b610ca28185610c41565b9350610cb2818560208601610c52565b610cbb81610c7c565b840191505092915050565b6000610cd182610ace565b9050919050565b610ce181610cc6565b82525050565b600060a0820190508181036000830152610d018188610c8d565b9050610d106020830187610b8f565b610d1d6040830186610cd8565b610d2a6060830185610b65565b610d376080830184610b8f565b9695505050505050565b600080fd5b600080fd5b7f4e487b7100000000000000000000000000000000000000000000000000000000600052604160045260246000fd5b610d8382610c7c565b810181811067ffffffffffffffff82111715610da257610da1610d4b565b5b80604052505050565b6000610db5610a57565b9050610dc18282610d7a565b919050565b600067ffffffffffffffff821115610de157610de0610d4b565b5b610dea82610c7c565b9050602081019050919050565b82818337600083830152505050565b6000610e19610e1484610dc6565b610dab565b905082815260208101848484011115610e3557610e34610d46565b5b610e40848285610df7565b509392505050565b600082601f830112610e5d57610e5c610d41565b5b8135610e6d848260208601610e06565b91505092915050565b610e7f81610cc6565b8114610e8a57600080fd5b50565b600081359050610e9c81610e76565b92915050565b600080600060608486031215610ebb57610eba610a61565b5b600084013567ffffffffffffffff811115610ed957610ed8610a66565b5b610ee586828701610e48565b9350506020610ef686828701610a8c565b9250506040610f0786828701610e8d565b9150509250925092565b7f596f7520617265206e6f7420746865206d616e61676572000000000000000000600082015250565b6000610f47601783610c41565b9150610f5282610f11565b602082019050919050565b60006020820190508181036000830152610f7681610f3a565b9050919050565b7f4e487b7100000000000000000000000000000000000000000000000000000000600052603260045260246000fd5b7f5265717565737420616c726561647920636f6d706c6574656400000000000000600082015250565b6000610fe2601983610c41565b9150610fed82610fac565b602082019050919050565b6000602082019050818103600083015261101181610fd5565b9050919050565b7f4e487b7100000000000000000000000000000000000000000000000000000000600052601260045260246000fd5b7f4e487b7100000000000000000000000000000000000000000000000000000000600052601160045260246000fd5b600061108182610a6b565b915061108c83610a6b565b92508261109c5761109b611018565b5b828204905092915050565b7f4e6f7420656e6f75676820617070726f76616c73000000000000000000000000600082015250565b60006110dd601483610c41565b91506110e8826110a7565b602082019050919050565b6000602082019050818103600083015261110c816110d0565b9050919050565b600081905092915050565b50565b600061112e600083611113565b91506111398261111e565b600082019050919050565b600061114f82611121565b9150819050919050565b7f5472616e73666572206661696c65640000000000000000000000000000000000600082015250565b600061118f600f83610c41565b915061119a82611159565b602082019050919050565b600060208201905081810360008301526111be81611182565b9050919050565b7f4e487b7100000000000000000000000000000000000000000000000000000000600052602260045260246000fd5b6000600282049050600182168061120c57607f821691505b60208210810361121f5761121e6111c5565b5b50919050565b60008190508160005260206000209050919050565b60006020601f8301049050919050565b600082821b905092915050565b6000600883026112877fffffffffffffffffffffffffffffffffffffffffffffffffffffffffffffffff8261124a565b611291868361124a565b95508019841693508086168417925050509392505050565b6000819050919050565b60006112ce6112c96112c484610a6b565b6112a9565b610a6b565b9050919050565b6000819050919050565b6112e8836112b3565b6112fc6112f4826112d5565b848454611257565b825550505050565b600090565b611311611304565b61131c8184846112df565b505050565b5b8181101561134057611335600082611309565b600181019050611322565b5050565b601f8211156113855761135681611225565b61135f8461123a565b8101602085101561136e578190505b61138261137a8561123a565b830182611321565b50505b505050565b600082821c905092915050565b60006113a86000198460080261138a565b1980831691505092915050565b60006113c18383611397565b9150826002028217905092915050565b6113da82610c36565b67ffffffffffffffff8111156113f3576113f2610d4b565b5b6113fd82546111f4565b611408828285611344565b600060209050601f83116001811461143b5760008415611429578287015190505b61143385826113b5565b86555061149b565b601f19841661144986611225565b60005b828110156114715784890151825560018201915060208501945060208101905061144c565b8683101561148e578489015161148a601f891682611397565b8355505b6001600288020188555050505b505050505050565b7f4d696e696d756d20636f6e747269627574696f6e206e6f74206d657400000000600082015250565b60006114d9601c83610c41565b91506114e4826114a3565b602082019050919050565b60006020820190508181036000830152611508816114cc565b9050919050565b600061151a82610a6b565b91507fffffffffffffffffffffffffffffffffffffffffffffffffffffffffffffffff820361154c5761154b611047565b5b600182019050919050565b7f596f7520617265206e6f7420616e20617070726f766572000000000000000000600082015250565b600061158d601783610c41565b915061159882611557565b602082019050919050565b600060208201905081810360008301526115bc81611580565b9050919050565b7f596f75206861766520616c726561647920617070726f7665642074686973207260008201527f6571756573740000000000000000000000000000000000000000000000000000602082015250565b600061161f602683610c41565b915061162a826115c3565b604082019050919050565b6000602082019050818103600083015261164e81611612565b905091905056fea26469706673582212209365f060df45693c58a7bc1f9ff8e7779e2c2d840f4d4c34c2fc94adfe7db97664736f6c634300081f0033a26469706673582212200479cfeb62f4f31495d2d1be14e3aa58153b7d47090a70bee0d7fe342461b9dc64736f6c634300081f0033",
  "linkReferences": {},
  "deployedLinkReferences": {}
}